:020000040800F2
:10000000400D002069010008F90B000833090008C1
:10001000F50B0008E90100085F150008000000006A
:10002000000000000000000000000000E10E0008D9
:100030007702000800000000050C0008ED1200081F
:1000400063150008FB0B00085D130008CD0D0008C8
:100050001D060008B90D0008790200088D0200088D
:1000600097020008A1020008AB0200080102000884
:100070000B020008150200081F02000829020008F0
:10008000330200083D020008D50100084B150008A6
:1000900055150008ED010008F7010008B502000839
:1000A00067130008851300087B130008711300080C
:1000B0008F13000899130008A313000845090008CE
:1000C0003B090008590900084F090008C10E000843
:1000D000CB0E0008111400081B140008251400089A
:1000E00083020008C30D000841150008D113000861
:1000F000EF130008E5130008DB130008DF01000818
:1001000053070008B50E0008AD130008D50E00080F
:10011000F913000805140008B9130008C5130008F6
:1001200047020008530200085F0200086B02000843
:10013000DFF80CD000F03CF800480047F917000841
:10014000400D002070470000EFF30980704780F3F6
:1001500009887047EFF30880704780F3088870477C
:1001600040BA7047C0BA7047064880470648004703
:10017000FEE7FEE7FEE7FEE7FEE7FEE7FEE7FEE757
:10018000FEE7FEE7F11200083101000840EA010332
:100190009B0703D009E008C9121F08C0042AFAD23D
:1001A00003E011F8013B00F8013B521EF9D2704701
:1001B000064C074D06E0E06840F0010394E80700B4
:1001C00098471034AC42F6D3FFF7B6FF001D000885
:1001D000201D000810B5882001F004FB10BD10B5EB
:1001E000FC2001F0FFFA10BD00BFFEE710B594201F
:1001F00001F0F8FA10BD10B5982001F0F3FA10BD27
:1002000010B56C2001F0EEFA10BD10B5702001F0B1
:10021000E9FA10BD10B5742001F0E4FA10BD10B574
:10022000782001F0DFFA10BD10B57C2001F0DAFA79
:1002300010BD10B5802001F0D5FA10BD10B5842096
:1002400001F0D0FA10BD10B54FF4907001F0CAFA69
:1002500010BD10B54FF4927001F0C4FA10BD10B586
:100260004FF4947001F0BEFA10BD10B54FF49670C3
:1002700001F0B8FA10BD704710B5582001F0B2FA7D
:1002800010BD10B5E02001F0ADFA10BD10B55C2036
:1002900001F0A8FA10BD10B5602001F0A3FA10BD5E
:1002A00010B5642001F09EFA10BD10B5682001F071
:1002B00099FA10BD10B59C2001F094FA10BD000011
:1002C0002DE9F04700240025012602274FF00408FD
:1002D0004FF0010900F09CF90546294800682840C4
:1002E00027490968884246D000F08CF90446244822
:1002F000006828432249086000F0E4F8814620485D
:100300000068401C28B11E480068C04300F078F81F
:10031000814604F00700072811D004F0010000B95D
:10032000002604F0020000B9002704F0040008B918
:100330004FF0000842463946304600F0C3F9B9F1A3
:10034000040F14D10FA000F0B3FE164800F0B0FE69
:1003500000BF1548006800F4E06014490843001D20
:1003600011490860BFF34F8F00BF00BFFEE710A028
:1003700000F09EFE02E019A000F09AFEBDE8F087B2
:100380000C00002057726974652050726F746563A9
:1003900074696F6E2064697361626C65642E2E2EC1
:1003A0000D0A0000301900080CED00E00000FA050D
:1003B0004572726F723A20466C6173682077726979
:1003C000746520756E70726F74656374696F6E20EA
:1003D0006661696C65642E2E2E0D0A00466C617391
:1003E00068206D656D6F7279206E6F742077726909
:1003F00074652070726F7465637465640D0A000023
:100400002DE9F04304464FF6FF763746B046B14635
:100410000425E443E6B2C4F30727C4F307484FEAD0
:100420001469E80200F082F90546042D3FD1214805
:1004300021498860214888600846006940F0100022
:100440000861FF2E05D01E480680E80200F06EF914
:100450000546042D08D1FF2F06D01948801C0780BF
:10046000E80200F063F90546042D0AD1B8F1FF0F48
:1004700007D01348001DA0F80080E80200F056F9EC
:100480000546042D0AD1B9F1FF0F07D00C48801D95
:10049000A0F80090E80200F049F90546052D06D0C5
:1004A0000548006941F6EF71084003490861284694
:1004B000BDE8F0832301674500200240AB89EFCD02
:1004C00008F8FF1F30B5A525042400F08FF800B10F
:1004D00000254FF4302000F029F90446042C3AD1CD
:1004E0001E481F4988601F4888600846006940F020
:1004F000200008610846006940F0400008614FF4A0
:10050000302000F013F90446042C1BD11448006974
:1005100041F6DF710840124908610846006940F061
:100520001000086110480580E00200F0FFF8044662
:10053000052C10D00A48006941F6EF7108400849BF
:10054000086108E0052C06D00548006941F6EF7106
:10055000084003490861204630BD0000230167457B
:1005600000200240AB89EFCD00F8FF1F30B50446F4
:1005700004254FF4302000F0D9F80546042D17D19A
:100580000C48006940F002000A49086108464461CD
:10059000006940F0400008614FF4302000F0C6F8D8
:1005A00005460448006941F6FD71084001490861AB
:1005B000284630BD0020024004200B49C96801F0E4
:1005C000010109B101200EE00749C96801F00401E9
:1005D00009B1022007E00449C96801F0100109B11E
:1005E000032000E00420704700200240002004495E
:1005F000C96901F0020109B1012000E00020704743
:10060000002002400148C069800870470020024075
:100610000148006A704700000020024010B55020D9
:1006200001F0E0F810BD01B500200099C1F30A0205
:100630001AB1012202EBD12000E0C80A08BD000077
:1006400078B506460C46042500200090E80200F02C
:100650006DF80546042D24D11348006940F00100CF
:10066000114908613480E80200F060F80546042D65
:1006700010D1B01C0090200C00990880E80200F016
:1006800055F805460848006941F6FE7108400649DC
:10069000086106E00448006941F6FE71084002491D
:1006A0000861284678BD0000002002400248034946
:1006B00048600348486070472301674500200240B6
:1006C000AB89EFCDF0B505460E4617460424134816
:1006D0001349886013488860E00200F027F8044658
:1006E000042C18D10E48006940F010000C49086134
:1006F00047F0F800304328430B490880E00200F03F
:1007000015F80446052C06D00548006941F6EF713E
:100710000840034908612046F0BD000023016745F9
:1007200000200240AB89EFCD02F8FF1F00B5024662
:100730000423FFF741FF034603E0FFF73DFF0346B5
:10074000521E012B01D1002AF7D102B90523184608
:1007500000BD10B54FF4807001F044F810BD2DE9D4
:10076000F041024600250026002000230024002737
:1007700091F803C00CF00F0591F803C00CF0100CB9
:10078000BCF1000F03D091F802C04CEA050591F8C6
:1007900000C0BCF1000F31D0146800202BE04FF0F6
:1007A000010C0CFA00F3B1F800C00CEA03069E42FB
:1007B00020D183004FF00F0C0CFA03F7BC4305FA6D
:1007C00003FC4CEA040491F803C0BCF1280F06D1E5
:1007D0004FF0010C0CFA00FCC2F814C00AE091F8CA
:1007E00003C0BCF1480F05D14FF0010C0CFA00FC1E
:1007F000C2F810C0401C0828D1D31460B1F800C062
:10080000BCF1FF0F34DD546800202EE000F1080C2D
:100810004FF0010808FA0CF3B1F800C00CEA030627
:100820009E4221D183004FF00F0C0CFA03F7BC431A
:1008300005FA03FC4CEA040491F803C0BCF1280F4C
:1008400005D100F1080C08FA0CF8C2F8148091F8F0
:1008500003C0BCF1480F07D100F1080C4FF00108AC
:1008600008FA0CF8C2F81080401C0828CED3546057
:10087000BDE8F081F0B50A460023002400210025E0
:1008800000F00046B6F1004F02D11D4EF16901E0C3
:100890001B4E7168C0F3034583B200F44016B6F5F1
:1008A000401F08D121F07061154E766826F0706601
:1008B000134F7E6012E000F48016B6F5801F06D15B
:1008C000032606FA05F4A14341F0706106E0460DE7
:1008D000360103FA06F6B14341F0706122B1460DCC
:1008E000360103FA06F6314300F00046B6F1004F38
:1008F00002D1034EF16101E0014E7160F0BD0000D4
:10090000000001400246002093680B400BB101201B
:1009100000E00020704708B50020009004E0684621
:1009200000F0A4FB00B100E0F9E700BF9DF8000073
:1009300008BD10B5FFF706FC10BD10B5C02000F0D3
:1009400051FF10BD10B5BC2000F04CFF10BD10B51C
:10095000C82000F047FF10BD10B5C42000F042FFD2
:1009600010BD000010B580210148FFF7CBFF10BD7E
:100970000008014038B5002404240121204600F07D
:1009800043F98020ADF8000048208DF80300694647
:100990000148FFF7E4FE38BD0008014000B585B00E
:1009A0000121880300F030F90121092000F02CF921
:1009B00001210420FFF75EFF4020ADF81000032066
:1009C0008DF8120018208DF8130004A91448FFF7C1
:1009D000C6FE8020ADF8100003208DF81200042020
:1009E0008DF8130004A90E48FFF7B9FE4FF4E1306B
:1009F00000900020ADF80400ADF80600ADF8080046
:100A0000ADF80C000C20ADF80A006946054800F06E
:100A100027FD0121034800F00AFD05B000BD0000DC
:100A2000000C014000380140F0B5144A00250024B4
:100A3000002320E0B1FBF2F6303606F0FF0C2E4624
:100A40006D1C00F806C0B1FBF2F602FB16110A2677
:100A5000B2FBF6F26E1E865D302E01D1012600E05B
:100A600000260CB9012700E000273E400EB100250A
:100A700000E0641C5B1C0A2BDCD3F0BD00CA9A3B6F
:100A800000243F480068A0F10060000B3D49086069
:100A9000084600683E2808D20846017801208840B0
:100AA000401EC0433849086003E04FF0004036491B
:100AB0000860FFF7ADFD344909680840324909680C
:100AC000884203D001203149086002E000202F490C
:100AD000086053E02E4800F0EBFA2E4800F0E8FAE8
:100AE0002D4800F0E5FA2D4800F0E2FA2A4800F01F
:100AF000DFFA2B4800F0DCFA274800F0D9FA294841
:100B000000F0D6FA224800F0D3FA2048006810B16D
:100B100025A000F0CDFAFFF7FEFE0446312C01D0EF
:100B2000202C11D100F0E4F92F4840682F490860CB
:100B3000084600682E4908602B490868FFF70DFB3E
:100B40002B480068804719E0332C0FD126484068B5
:100B50002649086008460068254908602249086857
:100B6000FFF7FBFA22480068804707E0342C05D1E4
:100B700006480068012801D1FFF7A2FBAAE70000A0
:100B800014000020080000200C00002010000020AD
:100B9000EC180008C01900088C1A00087C1900081D
:100BA000041A0008481A00082044697361626C65E1
:100BB000207468652077726974652070726F74653F
:100BC0006374696F6E202D2D2D2D2D2D2D2D2D2D26
:100BD0002D2D2D2D2D2D2D2D2D2D2D2D2D2D2D2052
:100BE000340D0A0A00000000002000080400002064
:100BF0000000002000BFFEE7704710B5442000F061
:100C0000F1FD10BD7047000029B1064A9269024308
:100C1000044B9A6104E0034A92698243014B9A6152
:100C200070470000001002402DE9F0410021002231
:100C3000002500230026002400278C46DFF8608171
:100C4000D8F8048008F00C0121B1042907D0082944
:100C500059D109E0DFF84C81C0F8008058E0DFF896
:100C60004881C0F8008053E0DFF83481D8F8048070
:100C700008F47012DFF82881D8F8048008F4803571
:100C8000920C0D2A01D0921C00E0062235B9DFF843
:100C90001C8102FB08F8C0F8008033E0DFF8008117
:100CA000D8F82C8008F48036DFF8F480D8F82C804F
:100CB00008F00F0808F1010446B9DFF8EC80B8FB32
:100CC000F4F808FB02F8C0F800801BE0DFF8D080E1
:100CD000D8F82C80C8F3031808F10107DFF8C080AA
:100CE000D8F82C80C8F3032808F1020CDFF8B8808C
:100CF000B8FBF7F808FB0CF8B8FBF4F808FB02F8AF
:100D0000C0F8008004E0DFF89C80C0F8008000BFDD
:100D100000BFDFF88C80D8F8048008F0F0010909E2
:100D2000DFF88C8018F80130D0F8008028FA03F83A
:100D3000C0F80480DFF86880D8F8048008F4E06127
:100D4000090ADFF86C8018F80130D0F8048028FA1E
:100D500003F8C0F80880DFF84880D8F8048008F469
:100D60006051C90ADFF8488018F80130D0F80480D3
:100D700028FA03F8C0F80C80DFF82480D8F8048043
:100D800008F44041890BDFF82C8018F80130D0F8C6
:100D90000C80B8FBF3F8C0F81080BDE8F0810000CB
:100DA0000010024000127A0040787D0100093D00E9
:100DB0002C0000203C00002010B5542000F012FD53
:100DC00010BD10B5E42000F00DFD10BD10B54C2095
:100DD00000F008FD10BD70B505460C4606E028463B
:100DE00000F044F9012801D1002070BD201EA4F1BB
:100DF0000104F4D1401EF8E72DE9F84304460D46FE
:100E000090460020286041466846FFF7E4FF18B18D
:100E10004FF0FF30BDE8F8839DF80000182813D08C
:100E200006DC012809D0022809D0042820D109E0D5
:100E300041281AD061281BD118E080271BE04FF40D
:100E4000806718E00020E5E741466846FFF7C3FFEA
:100E500040B99DF80000182804D14FF0FF302860F9
:100E60000020D7E74FF0FF30D4E700BF0120D1E7E3
:100E70004FF0FF30CEE700BF9DF800002070012644
:100E800009E0A0194146FFF7A6FF10B14FF0FF306F
:100E9000C0E7701C86B2781D8642F2DB6178A078CC
:100EA00080F0FF00814202D04FF0FF30B2E72F60A8
:100EB0000020AFE710B54FF4827000F093FC10BD36
:100EC00010B5CC2000F08EFC10BD10B5D02000F085
:100ED00089FC10BD10B54FF4867000F083FC10BD86
:100EE000704710B50446204600F0D2F8002010BD2F
:100EF0003EB51DA207CA8DE8070000241DA000F022
:100F0000D7F82B4800F032FB0446002C16DD2948A8
:100F100000F0CEF8284800F0CBF821466846FFF7ED
:100F200083FD26A000F0C4F8684600F0C1F826A0B2
:100F300000F0BEF827A000F0BBF814E0601C18B960
:100F400025A000F0B5F80EE0A01C18B932A000F002
:100F5000AFF808E0E01C18B936A000F0A9F802E0EC
:100F60003AA000F0A5F83EBD20202020202020201F
:100F70002020000057616974696E6720666F7220D7
:100F80007468652066696C6520746F2062652073E3
:100F9000656E74202E2E2E202870726573732027A4
:100FA000612720746F2061626F7274290A0D00003E
:100FB00040000020D01A0008400400200A0D2053F1
:100FC000697A653A200000002042797465730D0A41
:100FD000000000000D0A00000A0A0D54686520692F
:100FE0006D6167652073697A652069732068696738
:100FF000686572207468616E2074686520616C6C2D
:101000006F776564207370616365206D656D6F72C5
:1010100079210A0D000000000A0A0D566572696602
:1010200069636174696F6E206661696C6564210A29
:101030000D0000000D0A0A41626F7274656420623F
:101040007920757365722E0A0D0000000A0D466145
:10105000696C656420746F207265636569766520CC
:101060007468652066696C65210A0D0010B5044638
:101070002021064800F0E7F928B10448001D008847
:101080002070012010BD0020FCE700000038014066
:1010900010B504462146054800F04EFA00BF8021F5
:1010A000024800F0D0F90028F9D010BD0038014006
:1010B00010B5044603E02078FFF7EAFF641C2078AF
:1010C0000028F8D110BD10B500F002F810BD0000E6
:1010D0000CB50020019000903F48006840F480303B
:1010E0003D49086000BF3C48006800F400300090B3
:1010F0000198401C0190009818B90198B0F5A06FB4
:10110000F1D13548006800F4003010B101200090A2
:1011100001E000200090009801285CD12F48006871
:1011200040F010002D4908600846006820F00300D8
:1011300008600846006840F00200086026484068E1
:10114000254948600846406848600846406840F4C1
:10115000806048600846C06A214908401E49C8624C
:101160000846C06A1F4908431B49C8620846006810
:1011700040F08060086000BF1748006800F0006021
:101180000028F9D01448406820F47C1012494860C7
:101190000846406840F4E81048600846006840F09F
:1011A0008070086000BF0C48006800F000700028E4
:1011B000F9D00948406820F0030007494860084614
:1011C000406840F00200486000BF0348406800F0FB
:1011D0000C000828F9D10CBD00100240002002408C
:1011E00000F0FEFF4406010070B502460C460021E7
:1011F000002500231078302843D15078782802D079
:10120000507858283DD1907808B9002070BD02214F
:1012100030E0505C10B9236001252DE0505C41287E
:1012200002DB505C46280BDD505C612802DB505C21
:10123000662805DD505C302819DB505C392816DC47
:10124000505C302805DB505C392802DC505C3038BB
:101250000AE0505C412805DB505C462802DC505C0B
:10126000373801E0505C573800EB031301E00025EC
:1012700002E0491C0B29CCD300BF0B2934D3002535
:1012800032E000212AE0505C10B92360012527E0FC
:10129000505C6B2802D0505C4B2804D119B19B02E2
:1012A000236001251CE0505C6D2802D0505C4D2865
:1012B00004D119B11B052360012511E0505C3028D1
:1012C00009DB505C392806DC505C303803EB8306C0
:1012D00000EB460301E0002502E0491C0B29D2D3B4
:1012E00000BF0B2900D3002528468FE77047000078
:1012F00010B51648006840F001001449086008461F
:10130000406813490840114948600846006811497F
:1013100008400E4908600846006820F480200860F4
:101320000846406820F4FE0048600846006820F047
:10133000A05008604FF47F0088600020C862FFF76B
:10134000C2FE4FF000600449086010BD001002406A
:101350000000FFF0FFFFF6FE08ED00E010B54820AA
:1013600000F040FA10BD10B5A02000F03BFA10BD0F
:1013700010B5AC2000F036FA10BD10B5A82000F072
:1013800031FA10BD10B5A42000F02CFA10BD10B534
:10139000B02000F027FA10BD10B5B42000F022FAFA
:1013A00010BD10B5B82000F01DFA10BD10B54FF4F7
:1013B000847000F017FA10BD10B54FF48C7000F077
:1013C00011FA10BD10B54FF48E7000F00BFA10BD7D
:1013D00010B5EC2000F006FA10BD10B5F82000F0B2
:1013E00001FA10BD10B5F42000F0FCF910BD10B5E5
:1013F000F02000F0F7F910BD10B54FF4887000F040
:10140000F1F910BD10B54FF48A7000F0EBF910BD82
:1014100010B5D42000F0E6F910BD10B5D82000F0CA
:10142000E1F910BD10B5DC2000F0DCF910BD21B1F0
:10143000828942F40052828104E082894DF6FF7372
:101440001A408281704702460020B1F5007F00D12A
:1014500000BF13880B400BB1012000E00020704753
:101460002DE9F04786B005460E460024A24600BF8F
:10147000A1460027B08900B100BF2F462C8A4CF648
:10148000FF700440F08804432C82AC894EF6F310C0
:101490000440B08831890843718908430443AC8112
:1014A000AC8A4FF6FF400440B0890443AC8201A8E7
:1014B000FFF7BAFB1F48874202D1DDF810A001E018
:1014C000DDF80CA0A88900F4004040B10AEBCA0086
:1014D00000EB0A1031684900B0FBF1F807E00AEBB5
:1014E000CA0000EB0A1031688900B0FBF1F86420F3
:1014F000B8FBF0F004012009642101FB1089A889E0
:1015000000F4004040B1322000EBC900B0FBF1F024
:1015100000F00700044308E0322000EB09106421CA
:10152000B0FBF1F000F00F0004432C8106B0BDE8E1
:10153000F087000000380140C1F308028280704744
:1015400010B5E82000F04EF910BD10B58C2000F069
:1015500049F910BD10B5902000F044F910BD00BF4E
:10156000FEE710B5402000F03DF910BD2DE9F04F29
:10157000ADF22C4D0646002000908A488A4908604A
:10158000002003908246019000BF002700200290B7
:10159000B04600BF4FF4801204A909A8FFF72CFC45
:1015A00010B101287ED1D1E04FF0000A0498B0F1CB
:1015B000FF3F01D070B907E00620FFF792FC002042
:1015C0000DF22C4DBDE8F08F0620FFF78AFC0120BC
:1015D0000290B9E09DF82500F9B2884203D01520A9
:1015E000FFF77FFCB0E0002F6ED19DF827000028A8
:1015F00063D000250DF1270405E014F8012B2846DF
:101600006D1C6A490A54207808B1FF2DF5DD0022CF
:1016100028466D1C65490A540025641C05E014F831
:10162000012B28466D1C05A90A542078202801D0DA
:10163000102DF4DB002228466D1C05A90A546946CA
:1016400005A8FFF7D1FD0098B0F5802F08DB182022
:10165000FFF747FC1820FFF744FC4FF0FF30AFE7DF
:101660000098FEF7E0FF52490860002051490860E9
:1016700010E04D490968504A12884E4B1B6802FB26
:101680000310FEF773FF4D4908704A480068401C7C
:10169000484908604748006845490968884205D2BA
:1016A000464800E05BE000780428E2D00620FFF71F
:1016B00018FC4320FFF715FC43E00620FFF711FC60
:1016C0000120029003903FE00DF1270B5946404660
:1016D000049AFEF75BFD3A4806604FF0000923E0EC
:1016E00037480068016830480068FEF7A9FF2E48B7
:1016F00000680068324909680968884208D01820E3
:10170000FFF7EFFB1820FFF7ECFB6FF0010057E746
:1017100025480068001D2449086029480068001D0C
:101720002749086009F104090498814506DA1D4932
:10173000009808441C4909688842D1D80620FFF760
:10174000D0FB7F1C0120019000BF1CE01820FFF798
:10175000C8FB1820FFF7C5FB6FF0020030E70198C7
:10176000002801DD0AF1010ABAF1050F07DD182092
:10177000FFF7B7FB1820FFF7B4FB002020E743205A
:10178000FFF7AFFB00BF00BF029800283FF402AF95
:1017900000BF00BF039800283FF4F7AE00BF00BFB2
:1017A00000980DE7002000081400002040040020ED
:1017B000200000201C000020180000202400002031
:1017C0002800002002E008C8121F08C1002AFAD130
:1017D00070477047002001E001C1121F002AFBD1B1
:1017E0007047000070B50446024825582E46B047A1
:1017F00070BD0000002000080024FEF757FFFFF72F
:10180000B9F8FFF7AFF80446002C25D1FFF7C6F86A
:101810001A48FFF74DFC1A48FFF74AFC1948FFF732
:1018200047FC1948FFF744FC1748FFF741FC1748ED
:10183000FFF73EFC1648FFF73BFC1648FFF738FC65
:1018400015A0FFF735FC0D48FFF732FC22A0FFF78B
:101850002FFCFFF715F90EE0214840682149086088
:1018600008460068204908601D490868FEF775FCB5
:101870001D480068804700BFFEE70000BC1C000850
:10188000681B0008AC1B0008341C0008781C00080A
:10189000F01B0008241B00080D0A3D2020202020FA
:1018A000202020202020202020434F5059524947FB
:1018B000485440323031392020202020202009494E
:1018C000475549434F4F2020202020202020202012
:1018D000202020203D2020000D0A0D0A00000000DD
:1018E0000020000804000020000000202D2D2D2DD8
:1018F0002D2D2D2D2D2D2D2D2D2D2D2D2D2D2D2D18
:101900002D2D2D2D2D2D2D2D2D2D2D2D2D2D2D2D07
:101910002D2D2D2D2D2D2D2D2D2D2D2D2D2D2D2DF7
:101920002D2D2D2D2D2D2D2D2D2D2D0D0A000000B1
:101930002E2E2E616E6420612053797374656D20A4
:1019400052657365742077696C6C206265206765E9
:101950006E65726174656420746F2072652D6C6FA2
:10196000616420746865206E6577206F7074696F9C
:101970006E2062797465730D0A000000202020201B
:1019800020312F535041434520202020202020206B
:10199000202020207C202020202020202020747245
:1019A000616E736665722066696C65202020202058
:1019B000202020202020202020207C0D0A00000054
:1019C00020202066756374696F6E20636F646520E4
:1019D00020202020202020207C20202020202020AB
:1019E0002066756E6374696F2064657363726962E3
:1019F00065202020202020202020202020207C0D59
:101A00000A00000020202020202020332020202039
:101A10002020202020202020202020207C2020206A
:101A200071756974207570646174652C6A756D7068
:101A300020746F2061707020202020202020202022
:101A400020207C0D0A0000002020202020202034AF
:101A50002020202020202020202020202020202086
:101A60007C20202044697361626C65207468652065
:101A700077726974652070726F74656374696F6ED4
:101A80002020202020207C0D0A0000002D2D2D2D4F
:101A90002D2D2D2D2D2D2D2D2D2D2D2D2D2D2D2D76
:101AA0002D2D2D2D7C2D2D2D2D2D2D2D2D2D2D2D17
:101AB0002D2D2D2D2D2D2D2D2D2D2D2D2D2D2D2D56
:101AC0002D2D2D2D2D2D2D2D2D2D7C0D0A000000C1
:101AD0000A0A0D2050726F6772616D6D696E672022
:101AE000436F6D706C6574656420537563636573D3
:101AF0007366756C6C79210A0D2D2D2D2D2D2D2DD4
:101B00002D2D2D2D2D2D2D2D2D2D2D2D2D2D2D2D05
:101B10002D2D2D2D2D2D2D2D2D0D0A204E616D6578
:101B20003A2000000D0A2A4040404040402A202A26
:101B30002A404040402A40202A4040404040402A1D
:101B4000202A4040404040402A202A2A404040402D
:101B50002A2A202A2A404040402A2A202A2A404075
:101B600040402A2A200000000D0A2A404040404000
:101B7000402A202A2A404040402A2A20402A2A2A55
:101B80002A2A2A40202A4040404040402A202A2A2F
:101B9000404040402A2A202A2A404040402A2A2009
:101BA0002A2A404040402A2A200000000D0A2A2A02
:101BB0002A40402A2A2A202A402A2A2A2A402A2041
:101BC000402A2A2A2A2A2A40202A2A2A40402A2A27
:101BD0002A202A402A2A2A2A402A202A402A2A2A37
:101BE0002A402A202A402A2A2A2A402A20000000A5
:101BF0000D0A2A2A2A40402A2A2A202A402A2A2A4A
:101C00002A404020402A2A2A2A2A2A40202A2A2AF0
:101C100040402A2A2A202A402A2A2A2A402A202AE0
:101C2000402A2A2A2A402A202A402A2A2A2A402AC6
:101C3000200000000D0A2A2A2A40402A2A2A204091
:101C40002A2A2A2A2A2A2A20402A2A2A2A2A2A40D2
:101C5000202A2A2A40402A2A2A20402A2A2A2A2AB6
:101C60002A2A20402A2A2A2A2A2A4020402A2A2AA6
:101C70002A2A2A40200000000D0A2A2A2A40402A47
:101C80002A2A20402A2A2A4040404020402A2A2A44
:101C90002A2A2A40202A2A2A40402A2A2A20402A60
:101CA0002A2A2A2A2A2A20402A2A2A2A2A2A40207C
:101CB000402A2A2A2A2A2A40200000000D0A3D3DF7
:101CC0003D3D3D3D3D3D3D3D3D3D3D3D3D3D3D3D44
:101CD0003D3D3D3D3D3D3D3D3D3D3D3D3D3D3D3D34
:101CE0003D3D3D3D3D3D3D3D3D3D3D3D3D3D3D3D24
:101CF0003D3D3D3D3D3D3D3D3D3D3D3D3D000000CB
:101D0000201D00080000002040000000C41700084B
:101D1000601D000840000020000D0000D4170008DE
:101D200000000000000000000000000000000000B3
:101D30000000000000200008000800000000000073
:101D4000000000000400000000000000000000008F
:101D5000010203040102030406070809020406083D
:0400000508000131BD
:00000001FF
